:020000020000FC
:100000004FC31895189518951895F9C01895189517
:100010001895189518951895AFA09DB9B23B3FA1BA
:10002000BFBBB73E1FBC1F17400108103642609A85
:0100300007C8
:10003200A89501B5086101BD0FE001BDA89508951D
:100042000A2E083E23E0120714F007EE13E0E0E662
:1000520020E022872187208740E008C0061B10404D
:10006200A0E6A40FA85F2C9123952C93A42FA15650
:100072006C91202F312F261B304082F7439543305D
:10008200A8F3A02D089508B3046208BB0AB30FEFCA
:100092000ABB07B30B6407BB089507E807B905E875
:1000A20006B908950FB504600FBD09B7046009BF12
:1000B200089585D140E011D39AD042E00ED39BD06F
:1000C20046E00BD391D044E008C379D1033221E05A
:1000D200114018F002E2008F218F72D1023D20E020
:1000E200104018F402ED008F218F81D0093C10409E
:1000F20018F008EC028F238F7AD00C38104018F4D5
:100102000CE8028F238F77D0043E23E0120710F011
:1001120003EE05C0053020E0104018F405E0048B22
:10012200258B62D0083E23E0120720F007EE048FF1
:10013200258F0895012B21F401E010E0048F158F23
:100142000895E0E640E0BDD2008F118F42E0B9D2BF
:10015200028F138F46E0B5D2048B158B44E0B1D2E7
:10016200048F158FB2CF2FD179F00A9581F00A95BD
:1001720081F00A95A1F00E5251F00A9551F00A95BC
:1001820051F00A9551F00EC0068D178D0AC018D194
:1001920008C02DD006C02FD004C026D002C00289CC
:1001A20013894EDFE0E601AD0023C9F010E000E65E
:1001B200010FE02FE085F0E0E85EFF4FC895E02FE9
:1001C20003861395133098F3F7D0023360F0E8E218
:1001D200F0E0C895E0E6158510291587089500E03E
:1001E2000387048705870895048D158D0895028D70
:1001F200138D0895E0E60489158908958A93FA9388
:10020200EA933A922A921A920A927A936A935A93A8
:100212004A933A932A931A930A938FB705EB0EBD2A
:1002220004B115B120E0369A402F412BE0E6F9F0F7
:1002320042AD403460F44481558166817781400F3C
:10024200511F621F721F448355836683778302ADF9
:10025200039502AF23AF02AD043F30F12083218327
:100262002283238324832583268327831CC003AD13
:10027200039503AF03AD0A3168F002AD073050F0C9
:100282000481158126813781008311832283338380
:1002920026D0F7D1E0E603AD043F30F020D0008352
:1002A200018302830383EDD1E0E605A9039505AB43
:1002B200003420F000E005AB01E004AB8FBF0991F0
:1002C200199129913991499159916991799109909D
:1002D200199029903990E991F9918991189500E046
:1002E200048305830683078308950A9561F00A95BE
:1002F20071F10A9509F44CC00A9509F44EC00A95A9
:1003020009F450C0E2CE5FD069F00A9559F002506C
:1003120049F00E5271F00A9539F00A9579F00A9572
:1003220099F0D3CE03E046C062DFE1D0028F138F93
:10033200CCCE46D0DCD0008F118FC7CE5CDF05500B
:100342001040048B158BC1CE4FDFD1D009CF3BD0EB
:1003520069F0025059F00A9549F00E5269F00A9577
:1003620039F00A9569F00A9579F0AFCE02E022C021
:100372003EDF0F5F1F4FDACF23D00F5F1F4FDBCF60
:100382003ADF0B5F1F4FDDCF2FDF0F5F1F4FDECF37
:1003920013D0033081F403E30DC00ED0023059F4C0
:1003A20002E308C010D019F0035319F08ECE04E313
:1003B20001C005E300AF89CEE0E600AD0895E0E6B6
:1003C200008D118D0895F8DF0A950895E0E606A9DB
:1003D200033078F408B3036408BB0BB300E00BBB33
:1003E20006A9E00F03850BBB00A9009518B31023E3
:1003F20018BBE0E606A9039506AB033010F000E057
:1004020006AB0895E0E606A90230F1F40685B2993A
:1004120011C00395068704EF11E0008B118B07854D
:100422000023A1F50685083709F50DE7068703E0E5
:100432005CDF4FC0083720F4023010F001E055DFD6
:1004420000E0E0E60687EBCF002349F70785B59980
:1004520003C003950787DFCF083720F4023010F07E
:1004620002E043DF00E0E0E60787DCCF0B3F18F055
:100472000FEF068728C0002349F400891189012B58
:1004820041F0008934D0008B118B03C00685002314
:1004920039F40785083781F40DE7078704E025DF83
:1004A200E0E60685083761F40785023090F00DE733
:1004B2000687078705E0BCCF0B3F10F00FEF0787D9
:1004C20006850B3F30F007850B3F18F00FEF0687CC
:1004D2000787E0E6008911890130104039F400AD48
:1004E200023308F0E6DD01E0E0E600AF08950150D6
:1004F2001040089523D1C7DDD5DDCFDD22DE7ADEBF
:10050200B5D096DD789411C000E801AF2CDE5EDF35
:10051200EEE9AFD0083C48F000E00083E0E6ADD061
:1005220021F002891389E3DFA1D0E0E604A90023C8
:10053200E1F300E004AB03A90023B1F0A89500E0C9
:1005420003AB46E00081118122813381EFD0402F3D
:10055200512F622F732F48DE20E030E0CBD04AE0EB
:10056200E5D0E0E6068B178B46DE86899789208DDB
:10057200318D2817390730F074D028F4883720E0FD
:10058200920708F473D06DD078F4883720E0920790
:1005920058F064D0232B11F020E027AB27A92223A7
:1005A20029F027A92A9501C028EC27AB27A92223E5
:1005B20009F45CD062D011F0C39801C0C39A22DF63
:1005C20019DE20AD243049F449D02017310719F043
:1005D20045D0232B11F421E020AF20AD213039F496
:1005E2003DD085DF2017310711F404E000AFEDE9BB
:1005F20040D0093108F48ACF00E00083ECE90081A1
:10060200000FE0E6E00F80A391A3ECE932D00830BE
:1006120010F000E0008300E0E0E6068F078F102F65
:10062200110FE10F20A131A1E0E6468D578D420F57
:10063200531F468F578F0395083088F3042F152FC9
:1006420043E052D0068F178F18D009F45DCF00AD6A
:10065200013009F059CF01AD005857CF22893389B3
:100662000895228D338D821793070895028B138B81
:100672000895008103950083089502891389012B4F
:100682000895E0E600E0048305830683078302AF52
:1006920003AF01E003AB089500008895FECF0DED96
:1006A2000DBFC2EC4ED0002309F058D023DFF4DF97
:1006B200F3CFE199FECF08954395FBDF4EBBE09A5D
:1006C2000895FBDF0DB3F8DF1DB3089543954EBBCC
:1006D200F894E29AE19A0FBE08950FB6EADF0DBBD5
:1006E200F6DFE7DF1DBBF2CF4A951AF016950795A4
:1006F200FBCF08950024112422243324E02FE12B80
:10070200E22BE32B71F0369527951795079520F488
:10071200040E151E261E371E440F551F661F771F17
:10072200EDCF002D112D222D332D08954A952AF05B
:100732003695279517950795F9CF08959A938A9339
:10074200089501E0089510E01D930A95E9F70895D0
:10075200C89531960D920A95D9F708958DE290E0E9
:10076200E82FF92FC895002D3196C895A02DE82FB6
:10077200F92F3296C895202D3196C895122F10293F
:1007820021F0E22FF02DE4DF01C0DDDF049610E05E
:100792008133910728F30895000000000000000053
:1007A2000000000000000000000000000000000047
:1007B2000000000000000000000000000000000037
:1007C20000000000000000000201400000000000E4
:0A07D20001800000000000640A012D
:0400000300000000F9
:00000001FF
